{
  "contractName": "BenzNFT",
  "abi": [
    {
      "inputs": [
        {
          "internalType": "uint256",
          "name": "_startDate",
          "type": "uint256"
        },
        {
          "internalType": "uint256",
          "name": "_endDate",
          "type": "uint256"
        },
        {
          "internalType": "string[]",
          "name": "tokenURIs",
          "type": "string[]"
        }
      ],
      "stateMutability": "nonpayable",
      "type": "constructor"
    },
    {
      "anonymous": false,
      "inputs": [
        {
          "indexed": true,
          "internalType": "address",
          "name": "owner",
          "type": "address"
        },
        {
          "indexed": true,
          "internalType": "address",
          "name": "approved",
          "type": "address"
        },
        {
          "indexed": true,
          "internalType": "uint256",
          "name": "tokenId",
          "type": "uint256"
        }
      ],
      "name": "Approval",
      "type": "event"
    },
    {
      "anonymous": false,
      "inputs": [
        {
          "indexed": true,
          "internalType": "address",
          "name": "owner",
          "type": "address"
        },
        {
          "indexed": true,
          "internalType": "address",
          "name": "operator",
          "type": "address"
        },
        {
          "indexed": false,
          "internalType": "bool",
          "name": "approved",
          "type": "bool"
        }
      ],
      "name": "ApprovalForAll",
      "type": "event"
    },
    {
      "anonymous": false,
      "inputs": [
        {
          "indexed": true,
          "internalType": "address",
          "name": "from",
          "type": "address"
        },
        {
          "indexed": true,
          "internalType": "address",
          "name": "to",
          "type": "address"
        },
        {
          "indexed": true,
          "internalType": "uint256",
          "name": "tokenId",
          "type": "uint256"
        }
      ],
      "name": "Transfer",
      "type": "event"
    },
    {
      "inputs": [
        {
          "internalType": "address",
          "name": "to",
          "type": "address"
        },
        {
          "internalType": "uint256",
          "name": "tokenId",
          "type": "uint256"
        }
      ],
      "name": "approve",
      "outputs": [],
      "stateMutability": "nonpayable",
      "type": "function"
    },
    {
      "inputs": [
        {
          "internalType": "address",
          "name": "owner",
          "type": "address"
        }
      ],
      "name": "balanceOf",
      "outputs": [
        {
          "internalType": "uint256",
          "name": "",
          "type": "uint256"
        }
      ],
      "stateMutability": "view",
      "type": "function"
    },
    {
      "inputs": [],
      "name": "endDate",
      "outputs": [
        {
          "internalType": "uint256",
          "name": "",
          "type": "uint256"
        }
      ],
      "stateMutability": "view",
      "type": "function"
    },
    {
      "inputs": [
        {
          "internalType": "uint256",
          "name": "tokenId",
          "type": "uint256"
        }
      ],
      "name": "getApproved",
      "outputs": [
        {
          "internalType": "address",
          "name": "",
          "type": "address"
        }
      ],
      "stateMutability": "view",
      "type": "function"
    },
    {
      "inputs": [
        {
          "internalType": "address",
          "name": "owner",
          "type": "address"
        },
        {
          "internalType": "address",
          "name": "operator",
          "type": "address"
        }
      ],
      "name": "isApprovedForAll",
      "outputs": [
        {
          "internalType": "bool",
          "name": "",
          "type": "bool"
        }
      ],
      "stateMutability": "view",
      "type": "function"
    },
    {
      "inputs": [],
      "name": "name",
      "outputs": [
        {
          "internalType": "string",
          "name": "",
          "type": "string"
        }
      ],
      "stateMutability": "view",
      "type": "function"
    },
    {
      "inputs": [
        {
          "internalType": "uint256",
          "name": "tokenId",
          "type": "uint256"
        }
      ],
      "name": "ownerOf",
      "outputs": [
        {
          "internalType": "address",
          "name": "",
          "type": "address"
        }
      ],
      "stateMutability": "view",
      "type": "function"
    },
    {
      "inputs": [
        {
          "internalType": "address",
          "name": "from",
          "type": "address"
        },
        {
          "internalType": "address",
          "name": "to",
          "type": "address"
        },
        {
          "internalType": "uint256",
          "name": "tokenId",
          "type": "uint256"
        }
      ],
      "name": "safeTransferFrom",
      "outputs": [],
      "stateMutability": "nonpayable",
      "type": "function"
    },
    {
      "inputs": [
        {
          "internalType": "address",
          "name": "from",
          "type": "address"
        },
        {
          "internalType": "address",
          "name": "to",
          "type": "address"
        },
        {
          "internalType": "uint256",
          "name": "tokenId",
          "type": "uint256"
        },
        {
          "internalType": "bytes",
          "name": "_data",
          "type": "bytes"
        }
      ],
      "name": "safeTransferFrom",
      "outputs": [],
      "stateMutability": "nonpayable",
      "type": "function"
    },
    {
      "inputs": [
        {
          "internalType": "address",
          "name": "operator",
          "type": "address"
        },
        {
          "internalType": "bool",
          "name": "approved",
          "type": "bool"
        }
      ],
      "name": "setApprovalForAll",
      "outputs": [],
      "stateMutability": "nonpayable",
      "type": "function"
    },
    {
      "inputs": [],
      "name": "startDate",
      "outputs": [
        {
          "internalType": "uint256",
          "name": "",
          "type": "uint256"
        }
      ],
      "stateMutability": "view",
      "type": "function"
    },
    {
      "inputs": [
        {
          "internalType": "bytes4",
          "name": "interfaceId",
          "type": "bytes4"
        }
      ],
      "name": "supportsInterface",
      "outputs": [
        {
          "internalType": "bool",
          "name": "",
          "type": "bool"
        }
      ],
      "stateMutability": "view",
      "type": "function"
    },
    {
      "inputs": [],
      "name": "symbol",
      "outputs": [
        {
          "internalType": "string",
          "name": "",
          "type": "string"
        }
      ],
      "stateMutability": "view",
      "type": "function"
    },
    {
      "inputs": [
        {
          "internalType": "uint256",
          "name": "tokenId",
          "type": "uint256"
        }
      ],
      "name": "tokenURI",
      "outputs": [
        {
          "internalType": "string",
          "name": "",
          "type": "string"
        }
      ],
      "stateMutability": "view",
      "type": "function"
    },
    {
      "inputs": [
        {
          "internalType": "address",
          "name": "from",
          "type": "address"
        },
        {
          "internalType": "address",
          "name": "to",
          "type": "address"
        },
        {
          "internalType": "uint256",
          "name": "tokenId",
          "type": "uint256"
        }
      ],
      "name": "transferFrom",
      "outputs": [],
      "stateMutability": "nonpayable",
      "type": "function"
    },
    {
      "inputs": [],
      "name": "mintNFT",
      "outputs": [
        {
          "internalType": "uint256",
          "name": "",
          "type": "uint256"
        }
      ],
      "stateMutability": "nonpayable",
      "type": "function"
    },
    {
      "inputs": [
        {
          "internalType": "address",
          "name": "minter",
          "type": "address"
        }
      ],
      "name": "isMinter",
      "outputs": [
        {
          "internalType": "bool",
          "name": "",
          "type": "bool"
        }
      ],
      "stateMutability": "view",
      "type": "function"
    },
    {
      "inputs": [],
      "name": "getReceipt",
      "outputs": [
        {
          "internalType": "string",
          "name": "",
          "type": "string"
        }
      ],
      "stateMutability": "view",
      "type": "function"
    },
    {
      "inputs": [
        {
          "internalType": "address",
          "name": "from",
          "type": "address"
        }
      ],
      "name": "queryReceipt",
      "outputs": [
        {
          "internalType": "string",
          "name": "",
          "type": "string"
        }
      ],
      "stateMutability": "view",
      "type": "function"
    }
  ],
  "bytecode": "0x608060405234801562000010575f80fd5b5060405162001f4b38038062001f4b8339810160408190526200003391620001d1565b6040518060400160405280600781526020016610995b9e93919560ca1b8152506040518060400160405280600381526020016213919560ea1b815250815f90816200007f9190620003a8565b5060016200008e8282620003a8565b505050600783905560088290558051620000b090600b906020840190620000ba565b5050505062000470565b828054828255905f5260205f2090810192821562000103579160200282015b82811115620001035782518290620000f29082620003a8565b5091602001919060010190620000d9565b506200011192915062000115565b5090565b8082111562000111575f6200012b828262000135565b5060010162000115565b50805462000143906200031c565b5f825580601f1062000153575050565b601f0160209004905f5260205f209081019062000171919062000174565b50565b5b8082111562000111575f815560010162000175565b634e487b7160e01b5f52604160045260245ffd5b604051601f8201601f191681016001600160401b0381118282101715620001c957620001c96200018a565b604052919050565b5f805f60608486031215620001e4575f80fd5b83519250602080850151925060408086015160018060401b03808211156200020a575f80fd5b818801915088601f8301126200021e575f80fd5b8151818111156200023357620002336200018a565b8060051b620002448682016200019e565b918252838101860191868101908c8411156200025e575f80fd5b87860192505b838310156200030a578251858111156200027d575f8081fd5b8601603f81018e136200028f575f8081fd5b8881015186811115620002a657620002a66200018a565b620002ba601f8201601f19168b016200019e565b8181528f8a838501011115620002cf575f8081fd5b5f5b82811015620002ee578381018b01518282018d01528b01620002d1565b505f9181018b0191909152835250918701919087019062000264565b80985050505050505050509250925092565b600181811c908216806200033157607f821691505b6020821081036200035057634e487b7160e01b5f52602260045260245ffd5b50919050565b601f821115620003a3575f81815260208120601f850160051c810160208610156200037e5750805b601f850160051c820191505b818110156200039f578281556001016200038a565b5050505b505050565b81516001600160401b03811115620003c457620003c46200018a565b620003dc81620003d584546200031c565b8462000356565b602080601f83116001811462000412575f8415620003fa5750858301515b5f19600386901b1c1916600185901b1785556200039f565b5f85815260208120601f198616915b82811015620004425788860151825594840194600190910190840162000421565b50858210156200046057878501515f19600388901b60f8161c191681555b5050505050600190811b01905550565b611acd806200047e5f395ff3fe608060405234801561000f575f80fd5b506004361061011c575f3560e01c80636352211e116100a9578063aa91e46c1161006e578063aa91e46c1461023e578063b88d4fde14610251578063c24a0f8b14610264578063c87b56dd1461026d578063e985e9c514610280575f80fd5b80636352211e146101ea57806370a08231146101fd57806395d89b4114610210578063a22cb46514610218578063aa271e1a1461022b575f80fd5b80630b97bc86116100ef5780630b97bc861461019d57806314f710fe146101b457806323b872dd146101bc57806342842e0e146101cf57806357d945c9146101e2575f80fd5b806301ffc9a71461012057806306fdde0314610148578063081812fc1461015d578063095ea7b314610188575b5f80fd5b61013361012e366004611445565b610293565b60405190151581526020015b60405180910390f35b6101506102e4565b60405161013f91906114ad565b61017061016b3660046114bf565b610373565b6040516001600160a01b03909116815260200161013f565b61019b6101963660046114ec565b6103fe565b005b6101a660075481565b60405190815260200161013f565b6101a6610512565b61019b6101ca366004611514565b61073b565b61019b6101dd366004611514565b61076c565b610150610786565b6101706101f83660046114bf565b6107a3565b6101a661020b36600461154d565b610819565b61015061089e565b61019b610226366004611566565b6108ad565b61013361023936600461154d565b6108bc565b61015061024c36600461154d565b6108fd565b61019b61025f3660046115b3565b6109a6565b6101a660085481565b61015061027b3660046114bf565b6109de565b61013361028e366004611688565b610b4e565b5f6001600160e01b031982166380ac58cd60e01b14806102c357506001600160e01b03198216635b5e139f60e01b145b806102de57506301ffc9a760e01b6001600160e01b03198316145b92915050565b60605f80546102f2906116b9565b80601f016020809104026020016040519081016040528092919081815260200182805461031e906116b9565b80156103695780601f1061034057610100808354040283529160200191610369565b820191905f5260205f20905b81548152906001019060200180831161034c57829003601f168201915b5050505050905090565b5f61037d82610b7b565b6103e35760405162461bcd60e51b815260206004820152602c60248201527f4552433732313a20617070726f76656420717565727920666f72206e6f6e657860448201526b34b9ba32b73a103a37b5b2b760a11b60648201526084015b60405180910390fd5b505f908152600460205260409020546001600160a01b031690565b5f610408826107a3565b9050806001600160a01b0316836001600160a01b0316036104755760405162461bcd60e51b815260206004820152602160248201527f4552433732313a20617070726f76616c20746f2063757272656e74206f776e656044820152603960f91b60648201526084016103da565b336001600160a01b038216148061049157506104918133610b4e565b6105035760405162461bcd60e51b815260206004820152603860248201527f4552433732313a20617070726f76652063616c6c6572206973206e6f74206f7760448201527f6e6572206e6f7220617070726f76656420666f7220616c6c000000000000000060648201526084016103da565b61050d8383610b97565b505050565b6007545f903390421080159061052a57506008544211155b6105765760405162461bcd60e51b815260206004820152601f60248201527f69742773206e6f74207468652072696768742074696d6520746f206d696e740060448201526064016103da565b61057f816108bc565b6105c45760405162461bcd60e51b8152602060048201526016602482015275796f752063616e206e6f74206d696e7420747769636560501b60448201526064016103da565b60056105cf60095490565b106106135760405162461bcd60e51b81526020600482015260146024820152736f6e6c792063616e206d696e742035204e46547360601b60448201526064016103da565b610621600980546001019055565b5f61062b60095490565b90506106378282610c04565b6106ec81600b610648600183611705565b8154811061065857610658611718565b905f5260205f2001805461066b906116b9565b80601f0160208091040260200160405190810160405280929190818152602001828054610697906116b9565b80156106e25780601f106106b9576101008083540402835291602001916106e2565b820191905f5260205f20905b8154815290600101906020018083116106c557829003601f168201915b5050505050610c1d565b600b6106f9600183611705565b8154811061070957610709611718565b5f91825260208083206001600160a01b0386168452600a909152604090922091610734910182611779565b5092915050565b6107453382610ca0565b6107615760405162461bcd60e51b81526004016103da90611854565b61050d838383610d60565b61050d83838360405180602001604052805f8152506109a6565b335f908152600a602052604090208054606091906102f2906116b9565b5f818152600260205260408120546001600160a01b0316806102de5760405162461bcd60e51b815260206004820152602960248201527f4552433732313a206f776e657220717565727920666f72206e6f6e657869737460448201526832b73a103a37b5b2b760b91b60648201526084016103da565b5f6001600160a01b0382166108835760405162461bcd60e51b815260206004820152602a60248201527f4552433732313a2062616c616e636520717565727920666f7220746865207a65604482015269726f206164647265737360b01b60648201526084016103da565b506001600160a01b03165f9081526003602052604090205490565b6060600180546102f2906116b9565b6108b8338383610efc565b5050565b6001600160a01b0381165f908152600a6020526040812080548291906108e1906116b9565b905011156108f057505f919050565b506001919050565b919050565b6001600160a01b0381165f908152600a60205260409020805460609190610923906116b9565b80601f016020809104026020016040519081016040528092919081815260200182805461094f906116b9565b801561099a5780601f106109715761010080835404028352916020019161099a565b820191905f5260205f20905b81548152906001019060200180831161097d57829003601f168201915b50505050509050919050565b6109b03383610ca0565b6109cc5760405162461bcd60e51b81526004016103da90611854565b6109d884848484610fc9565b50505050565b60606109e982610b7b565b610a4f5760405162461bcd60e51b815260206004820152603160248201527f45524337323155524953746f726167653a2055524920717565727920666f72206044820152703737b732bc34b9ba32b73a103a37b5b2b760791b60648201526084016103da565b5f8281526006602052604081208054610a67906116b9565b80601f0160208091040260200160405190810160405280929190818152602001828054610a93906116b9565b8015610ade5780601f10610ab557610100808354040283529160200191610ade565b820191905f5260205f20905b815481529060010190602001808311610ac157829003601f168201915b505050505090505f610afa60408051602081019091525f815290565b905080515f03610b0b575092915050565b815115610b3d578082604051602001610b259291906118a5565b60405160208183030381529060405292505050919050565b610b4684610ffc565b949350505050565b6001600160a01b039182165f90815260056020908152604080832093909416825291909152205460ff1690565b5f908152600260205260409020546001600160a01b0316151590565b5f81815260046020526040902080546001600160a01b0319166001600160a01b0384169081179091558190610bcb826107a3565b6001600160a01b03167f8c5be1e5ebec7d5bd14f71427d1e84f3dd0314c0f7b2291e5b200ac8c7c3b92560405160405180910390a45050565b6108b8828260405180602001604052805f8152506110d0565b610c2682610b7b565b610c895760405162461bcd60e51b815260206004820152602e60248201527f45524337323155524953746f726167653a2055524920736574206f66206e6f6e60448201526d32bc34b9ba32b73a103a37b5b2b760911b60648201526084016103da565b5f82815260066020526040902061050d82826118d3565b5f610caa82610b7b565b610d0b5760405162461bcd60e51b815260206004820152602c60248201527f4552433732313a206f70657261746f7220717565727920666f72206e6f6e657860448201526b34b9ba32b73a103a37b5b2b760a11b60648201526084016103da565b5f610d15836107a3565b9050806001600160a01b0316846001600160a01b03161480610d505750836001600160a01b0316610d4584610373565b6001600160a01b0316145b80610b465750610b468185610b4e565b826001600160a01b0316610d73826107a3565b6001600160a01b031614610ddb5760405162461bcd60e51b815260206004820152602960248201527f4552433732313a207472616e73666572206f6620746f6b656e2074686174206960448201526839903737ba1037bbb760b91b60648201526084016103da565b6001600160a01b038216610e3d5760405162461bcd60e51b8152602060048201526024808201527f4552433732313a207472616e7366657220746f20746865207a65726f206164646044820152637265737360e01b60648201526084016103da565b610e475f82610b97565b6001600160a01b0383165f908152600360205260408120805460019290610e6f908490611705565b90915550506001600160a01b0382165f908152600360205260408120805460019290610e9c908490611989565b90915550505f8181526002602052604080822080546001600160a01b0319166001600160a01b0386811691821790925591518493918716917fddf252ad1be2c89b69c2b068fc378daa952ba7f163c4a11628f55a4df523b3ef91a4505050565b816001600160a01b0316836001600160a01b031603610f5d5760405162461bcd60e51b815260206004820152601960248201527f4552433732313a20617070726f766520746f2063616c6c65720000000000000060448201526064016103da565b6001600160a01b038381165f81815260056020908152604080832094871680845294825291829020805460ff191686151590811790915591519182527f17307eab39ab6107e8899845ad3d59bd9653f200f220920489ca2b5937696c31910160405180910390a3505050565b610fd4848484610d60565b610fe084848484611102565b6109d85760405162461bcd60e51b81526004016103da9061199c565b606061100782610b7b565b61106b5760405162461bcd60e51b815260206004820152602f60248201527f4552433732314d657461646174613a2055524920717565727920666f72206e6f60448201526e3732bc34b9ba32b73a103a37b5b2b760891b60648201526084016103da565b5f61108060408051602081019091525f815290565b90505f81511161109e5760405180602001604052805f8152506110c9565b806110a8846111ff565b6040516020016110b99291906118a5565b6040516020818303038152906040525b9392505050565b6110da83836112fc565b6110e65f848484611102565b61050d5760405162461bcd60e51b81526004016103da9061199c565b5f6001600160a01b0384163b156111f457604051630a85bd0160e11b81526001600160a01b0385169063150b7a02906111459033908990889088906004016119ee565b6020604051808303815f875af192505050801561117f575060408051601f3d908101601f1916820190925261117c91810190611a2a565b60015b6111da573d8080156111ac576040519150601f19603f3d011682016040523d82523d5f602084013e6111b1565b606091505b5080515f036111d25760405162461bcd60e51b81526004016103da9061199c565b805181602001fd5b6001600160e01b031916630a85bd0160e11b149050610b46565b506001949350505050565b6060815f036112255750506040805180820190915260018152600360fc1b602082015290565b815f5b811561124e578061123881611a45565b91506112479050600a83611a71565b9150611228565b5f8167ffffffffffffffff8111156112685761126861159f565b6040519080825280601f01601f191660200182016040528015611292576020820181803683370190505b5090505b8415610b46576112a7600183611705565b91506112b4600a86611a84565b6112bf906030611989565b60f81b8183815181106112d4576112d4611718565b60200101906001600160f81b03191690815f1a9053506112f5600a86611a71565b9450611296565b6001600160a01b0382166113525760405162461bcd60e51b815260206004820181905260248201527f4552433732313a206d696e7420746f20746865207a65726f206164647265737360448201526064016103da565b61135b81610b7b565b156113a85760405162461bcd60e51b815260206004820152601c60248201527f4552433732313a20746f6b656e20616c7265616479206d696e7465640000000060448201526064016103da565b6001600160a01b0382165f9081526003602052604081208054600192906113d0908490611989565b90915550505f8181526002602052604080822080546001600160a01b0319166001600160a01b03861690811790915590518392907fddf252ad1be2c89b69c2b068fc378daa952ba7f163c4a11628f55a4df523b3ef908290a45050565b6001600160e01b031981168114611442575f80fd5b50565b5f60208284031215611455575f80fd5b81356110c98161142d565b5f5b8381101561147a578181015183820152602001611462565b50505f910152565b5f8151808452611499816020860160208601611460565b601f01601f19169290920160200192915050565b602081525f6110c96020830184611482565b5f602082840312156114cf575f80fd5b5035919050565b80356001600160a01b03811681146108f8575f80fd5b5f80604083850312156114fd575f80fd5b611506836114d6565b946020939093013593505050565b5f805f60608486031215611526575f80fd5b61152f846114d6565b925061153d602085016114d6565b9150604084013590509250925092565b5f6020828403121561155d575f80fd5b6110c9826114d6565b5f8060408385031215611577575f80fd5b611580836114d6565b915060208301358015158114611594575f80fd5b809150509250929050565b634e487b7160e01b5f52604160045260245ffd5b5f805f80608085870312156115c6575f80fd5b6115cf856114d6565b93506115dd602086016114d6565b925060408501359150606085013567ffffffffffffffff80821115611600575f80fd5b818701915087601f830112611613575f80fd5b8135818111156116255761162561159f565b604051601f8201601f19908116603f0116810190838211818310171561164d5761164d61159f565b816040528281528a6020848701011115611665575f80fd5b826020860160208301375f60208483010152809550505050505092959194509250565b5f8060408385031215611699575f80fd5b6116a2836114d6565b91506116b0602084016114d6565b90509250929050565b600181811c908216806116cd57607f821691505b6020821081036116eb57634e487b7160e01b5f52602260045260245ffd5b50919050565b634e487b7160e01b5f52601160045260245ffd5b818103818111156102de576102de6116f1565b634e487b7160e01b5f52603260045260245ffd5b601f82111561050d575f81815260208120601f850160051c810160208610156117525750805b601f850160051c820191505b818110156117715782815560010161175e565b505050505050565b818103611784575050565b61178e82546116b9565b67ffffffffffffffff8111156117a6576117a661159f565b6117ba816117b484546116b9565b8461172c565b5f601f8211600181146117eb575f83156117d45750848201545b5f19600385901b1c1916600184901b17845561184d565b5f85815260209020601f198416905f86815260209020845b838110156118235782860154825560019586019590910190602001611803565b508583101561184057818501545f19600388901b60f8161c191681555b50505060018360011b0184555b5050505050565b60208082526031908201527f4552433732313a207472616e736665722063616c6c6572206973206e6f74206f6040820152701ddb995c881b9bdc88185c1c1c9bdd9959607a1b606082015260800190565b5f83516118b6818460208801611460565b8351908301906118ca818360208801611460565b01949350505050565b815167ffffffffffffffff8111156118ed576118ed61159f565b6118fb816117b484546116b9565b602080601f83116001811461192e575f84156119175750858301515b5f19600386901b1c1916600185901b178555611771565b5f85815260208120601f198616915b8281101561195c5788860151825594840194600190910190840161193d565b508582101561197957878501515f19600388901b60f8161c191681555b5050505050600190811b01905550565b808201808211156102de576102de6116f1565b60208082526032908201527f4552433732313a207472616e7366657220746f206e6f6e20455243373231526560408201527131b2b4bb32b91034b6b83632b6b2b73a32b960711b606082015260800190565b6001600160a01b03858116825284166020820152604081018390526080606082018190525f90611a2090830184611482565b9695505050505050565b5f60208284031215611a3a575f80fd5b81516110c98161142d565b5f60018201611a5657611a566116f1565b5060010190565b634e487b7160e01b5f52601260045260245ffd5b5f82611a7f57611a7f611a5d565b500490565b5f82611a9257611a92611a5d565b50069056fea26469706673582212204d15a7d4b6e9bf8f1a918b3c1813381324dd72c08f37222fdc3a34301eba8d2d64736f6c63430008140033",
  "immutableReferences": {},
  "source": "// SPDX-License-Identifier: MIT\npragma solidity ^0.8.17;\n\nimport \"@openzeppelin/contracts/token/ERC721/extensions/ERC721URIStorage.sol\";\nimport \"@openzeppelin/contracts/utils/Counters.sol\";\n\n// import \"@openzeppelin/contracts/access/Ownable.sol\";\n\ncontract BenzNFT is ERC721URIStorage {\n    uint public startDate;\n    uint public endDate;\n\n    using Counters for Counters.Counter;\n    Counters.Counter private _tokenIds;\n\n    mapping(address => string) private _minters;\n    string[] private _tokenURIs;\n\n    constructor(\n        uint256 _startDate,\n        uint256 _endDate,\n        string[] memory tokenURIs\n    ) ERC721(\"BenzNFT\", \"NFT\") {\n        startDate = _startDate;\n        endDate = _endDate;\n        _tokenURIs = tokenURIs;\n    }\n\n    function mintNFT() public returns (uint256) {\n        address from = msg.sender;\n        // Mint only valid certain duration (example between 7 Jan to 14 Jan 2023)\n        // Mint only once for each wallet and Receipt (refer to 3.i)\n        // The receipt will have to be store in smart contract state\n        // Only able to mint 5 NFT\n        // The NFT should have metadata (name, description, image)\n        require(\n            block.timestamp >= startDate && block.timestamp <= endDate,\n            \"it's not the right time to mint\"\n        );\n        require(isMinter(from), \"you can not mint twice\");\n        require(_tokenIds.current() < 5, \"only can mint 5 NFTs\");\n        _tokenIds.increment();\n\n        uint256 newItemId = _tokenIds.current();\n        _safeMint(from, newItemId);\n        _setTokenURI(newItemId, _tokenURIs[newItemId - 1]);\n\n        _minters[from] = _tokenURIs[newItemId - 1];\n\n        return newItemId;\n    }\n\n    function isMinter(address minter) public view returns (bool) {\n        if (bytes(_minters[minter]).length > 0) {\n            return false;\n        } else {\n            return true;\n        }\n    }\n\n    function getReceipt() public view returns (string memory) {\n        return _minters[msg.sender];\n    }\n\n    function queryReceipt(address from) public view returns (string memory) {\n        return _minters[from];\n    }\n}\n",
  "sourcePath": "/Users/daniel/benz/contracts/BenzNFT.sol",
  "compiler": {
    "name": "solc",
    "version": "0.8.20+commit.a1b79de6.Emscripten.clang"
  },
  "schemaVersion": "3.4.16",
  "updatedAt": "2023-11-01T05:57:09.524Z",
  "devdoc": {
    "events": {
      "Approval(address,address,uint256)": {
        "details": "Emitted when `owner` enables `approved` to manage the `tokenId` token."
      },
      "ApprovalForAll(address,address,bool)": {
        "details": "Emitted when `owner` enables or disables (`approved`) `operator` to manage all of its assets."
      },
      "Transfer(address,address,uint256)": {
        "details": "Emitted when `tokenId` token is transferred from `from` to `to`."
      }
    },
    "kind": "dev",
    "methods": {
      "approve(address,uint256)": {
        "details": "See {IERC721-approve}."
      },
      "balanceOf(address)": {
        "details": "See {IERC721-balanceOf}."
      },
      "getApproved(uint256)": {
        "details": "See {IERC721-getApproved}."
      },
      "isApprovedForAll(address,address)": {
        "details": "See {IERC721-isApprovedForAll}."
      },
      "name()": {
        "details": "See {IERC721Metadata-name}."
      },
      "ownerOf(uint256)": {
        "details": "See {IERC721-ownerOf}."
      },
      "safeTransferFrom(address,address,uint256)": {
        "details": "See {IERC721-safeTransferFrom}."
      },
      "safeTransferFrom(address,address,uint256,bytes)": {
        "details": "See {IERC721-safeTransferFrom}."
      },
      "setApprovalForAll(address,bool)": {
        "details": "See {IERC721-setApprovalForAll}."
      },
      "supportsInterface(bytes4)": {
        "details": "See {IERC165-supportsInterface}."
      },
      "symbol()": {
        "details": "See {IERC721Metadata-symbol}."
      },
      "tokenURI(uint256)": {
        "details": "See {IERC721Metadata-tokenURI}."
      },
      "transferFrom(address,address,uint256)": {
        "details": "See {IERC721-transferFrom}."
      }
    },
    "version": 1
  },
  "userdoc": {
    "kind": "user",
    "methods": {},
    "version": 1
  }
}